:100000000C942A000C943C000C943C000C943C0092
:100010000C943C000C943C000C943C000C943C0070
:100020000C943C000C943C000C943C000C94CA01D1
:100030000C943C000C943C000C943C000C943C0050
:100040000C943C000C943C000C943C000C943E003E
:100050000C943C0011241FBECFE5D8E0DEBFCDBF1D
:1000600010E0A0E6B0E001C01D92AB37B107E1F7A8
:100070000E94E8000C9438030C9400001F920F9229
:100080000FB60F9211242F933F934F935F936F936B
:100090007F938F939F93AF93BF93EF93FF9381B120
:1000A000803839F0803A89F08036B9F510926100D5
:1000B00034C08091610093B1E82FF0E0EE59FF4F1A
:1000C00090838F5F8093610028C0E0916100F0E031
:1000D000EE59FF4F10821092610080916200809370
:1000E0006700809163008093680080916400809332
:1000F00069008091650080936A008091660080931A
:100100006B00E0916F00F09170000995E7E6F0E078
:10011000119280E0EF36F807D9F786B7806886BF7E
:10012000FF91EF91BF91AF919F918F917F916F91CF
:100130005F914F913F912F910F900FBE0F901F90A5
:10014000189510BC8CE089B91BB886E880BD88E1A1
:100150008AB908955D9BFECF8CB90895FC0104C057
:100160005D9BFECF31968CB980818823C9F70895B5
:1001700011B890E290B995E496BF880F82B90895BE
:1001800086B78B7B86BF08959093700080936F0035
:1001900008959093720080937100089584E690E032
:1001A00097BD86BD8FB5826A8FBD8EB581618EBDCC
:1001B00083B7856083BF89B7816089BF12BE80E342
:1001C00081BB8CE084BBC098AE98B898A69808957F
:1001D00010BC8CE089B91BB886E880BD88E18AB97B
:1001E00011B880E280B985E486BF8EEF82B90E94A3
:1001F000CE0088EC92E09093700080936F0078942A
:10020000FFCF85B3837F85BB82B38F7C82BB1BBC52
:100210001ABC19BC18BC0895CF93DF93EC010E945F
:100220000101D7FF04C0AB9AD095C195DF4FDBBD6C
:10023000CABDDF91CF910895CF93DF93EC010E9467
:100240000101D7FF04C0AA9AD095C195DF4FD9BD4F
:10025000C8BDDF91CF9108950F931F93CF93DF9384
:10026000EC018B010E940101D7FF04C0AA9AD0952E
:10027000C195DF4F17FF04C0AB9A109501951F4F32
:10028000D9BDC8BD1BBD0ABDDF91CF911F910F9194
:1002900008958C3611F08C34C1F482EE9FEF6EE13C
:1002A00070E00E942C0120E030E048EC50E00AC0F1
:1002B000FA013197F1F70197D9F72F5F3F4F2430BB
:1002C0003105F9F084EC99E0F3CF823711F08235F3
:1002D000C1F48EE190E062EE7FEF0E942C0120E0FD
:1002E00030E048EC50E00AC0FA013197F1F701978D
:1002F000D9F72F5F3F4F2430310519F084EC99E096
:10030000F3CF0895823511F58EEC9FEF6EEC7FEF01
:100310000E942C0120E030E048EC50E00AC0FA01D5
:100320003197F1F70197D9F72F5F3F4F243031050F
:1003300019F084EC99E0F3CF8CE60E94490182E346
:1003400090E062E370E00E942C0108958C3409F57E
:100350008EEC9FEF6EEC7FEF0E942C0120E030E0EE
:1003600048EC50E00AC0FA013197F1F70197D9F74C
:100370002F5F3F4F2430310519F084EC99E0F3CF23
:1003800082E70E94490182E390E062E370E00E940C
:100390002C0108951F920F920FB60F9211242F93E4
:1003A0003F934F935F936F937F938F939F93AF93FD
:1003B000BF93EF93FF939E9B02C082E503C0B09B67
:1003C00003C08CE40E948201FF91EF91BF91AF9135
:1003D0009F918F917F916F915F914F913F912F915D
:1003E0000F900FBE0F901F901895EF92FF920F93F2
:1003F0001F93CF93DF93EC018B0177FF02C000E0E6
:1004000010E0C017D10724F4CE01B8010E942802E1
:10041000C536D10584F0C4E6D0E00DC0CE01BE01E2
:100420000E942C0184EF91E0F7013197F1F70197D9
:10043000D9F7239703C088ECE82EF12C0C171D0781
:100440006CF3DF91CF911F910F91FF90EF90089582
:10045000EF92FF920F931F93CF93DF93EC018B01E9
:100460006536710514F004E610E00C171D0724F43E
:10047000CE01B8010E94F501D7FF10C0C0E0D0E066
:100480000DC0CE01BE010E942C0184EF91E0F70166
:100490003197F1F70197D9F7239603C098ECE92E2D
:1004A000F12CC017D1076CF3DF91CF911F910F9101
:1004B000FF90EF9008950F931F93DF93CF93CDB7E5
:1004C000DEB761970FB6F894DEBF0FBECDBF462FE3
:1004D0008E010F5F1F4FB80150E00E94EB02C80170
:1004E0000E94AE0061960FB6F894DEBF0FBECDBF7E
:1004F000CF91DF911F910F9108951F93CF93DF93B9
:10050000FC011191CF010E94CD02EC015D9BFECF59
:100510001CB9CE016AE00E945B025D9BFECF8AE0BF
:100520008CB95D9BFECF8DE08CB91D34B9F01E34C3
:100530003CF41234B1F01C3451F0113429F517C0D9
:10054000123549F01535E9F01135F1F417C0CE0137
:1005500062EE7FEF10C082EE9FEF01C0CE01BE01C0
:100560000AC0662777276C1B7D0BCB0104C08CE388
:1005700090E06CE370E00E942C0106C00E94010133
:1005800003C082E50E948201DF91CF911F910895FF
:1005900087E690E00E947D020895FC018827992754
:1005A000E89421912032E9F3293010F02E30C8F37D
:1005B0002B3241F02D3239F4689404C00E940C03B0
:1005C000820F911D219120532A30C0F31EF4909583
:1005D00081959F4F0895FB019F01E8944230C4F03C
:1005E0004532B4F44A3029F497FB1EF49095819576
:1005F0009F4F642F77270E942403805D8A330CF07D
:10060000895D8193CB010097A1F716F45DE25193C8
:100610001082C9010C9414037AE0979F902D879F54
:10062000802D910D11240895DC01FC01672F71913B
:100630007723E1F7329704C07C916D9370836291C8
:10064000AE17BF07C8F30895AA1BBB1B51E107C033
:10065000AA1FBB1FA617B70710F0A61BB70B881F52
:10066000991F5A95A9F780959095BC01CD010895E1
:04067000F894FFCF2C
:00000001FF
